:020000040800F2
:1000000000500020E11F00081D1D00081F1D0008F2
:10001000211D0008231D0008251D00080000000008
:10002000000000000000000000000000271D000884
:10003000291D0008000000002B1D00082D1D0008D0
:10004000292000082920000829200008292000086C
:10005000292000082920000829200008292000085C
:10006000292000082920000829200008292000084C
:10007000292000082920000829200008292000083C
:10008000292000082920000829200008292000082C
:10009000292000082920000829200008292000081C
:1000A000292000082920000829200008292000080C
:1000B000351D0008292000082920000829200008F3
:1000C00029200008292000082920000829200008EC
:1000D00029200008292000082920000829200008DC
:1000E000292000082920000829200008000000001D
:1000F0000000000000000000000000000000000000
:0C01000000000000000000005FF808F1A3
:1001100081F0004102E000BF83F0004330B54FEAB8
:1001200041044FEA430594EA050F08BF90EA020F25
:100130001FBF54EA000C55EA020C7FEA645C7FEAB8
:10014000655C00F0E2804FEA5454D4EB5555B8BFDB
:100150006D420CDD2C4480EA020281EA030382EA4C
:10016000000083EA010180EA020281EA0303362DDE
:1001700088BF30BD11F0004F4FEA01314FF4801CB1
:100180004CEA113102D0404261EB410113F0004FC3
:100190004FEA03334CEA133302D0524263EB43037A
:1001A00094EA050F00F0A780A4F10104D5F1200E18
:1001B0000DDB02FA0EFC22FA05F2801841F1000173
:1001C00003FA0EF2801843FA05F359410EE0A5F147
:1001D00020050EF1200E012A03FA0EFC28BF4CF078
:1001E000020C43FA05F3C01851EBE37101F000452E
:1001F00007D54FF0000EDCF1000C7EEB00006EEB3B
:100200000101B1F5801F1BD3B1F5001F0CD34908C4
:100210005FEA30004FEA3C0C04F101044FEA44521B
:1002200012F5800F80F09A80BCF1004F08BF5FEAA2
:10023000500C50F1000041EB045141EA050130BD82
:100240005FEA4C0C404141EB0101013C28BFB1F594
:10025000801FE9D291F0000F04BF01460020B1FADF
:1002600081F308BF2033A3F10B03B3F120020CDAB2
:100270000C3208DD02F1140CC2F10C0201FA0CF090
:1002800021FA02F10CE002F11402D8BFC2F1200CF5
:1002900001FA02F120FA0CFCDCBF41EA0C019040AB
:1002A000E41AA2BF01EB0451294330BD6FEA0404F4
:1002B0001F3C1CDA0C340EDC04F11404C4F12002DF
:1002C00020FA04F001FA02F340EA030021FA04F3F1
:1002D00045EA030130BDC4F10C04C4F1200220FA48
:1002E00002F001FA04F340EA0300294630BD21FA86
:1002F00004F0294630BD94F0000F83F4801306BF4C
:1003000081F480110134013D4EE77FEA645C18BF3F
:100310007FEA655C29D094EA050F08BF90EA020FD6
:1003200005D054EA000C04BF1946104630BD91EACE
:10033000030F1EBF0021002030BD5FEA545C05D1D1
:100340004000494128BF41F0004130BD14F5800410
:100350003CBF01F5801130BD01F0004545F0FE4184
:1003600041F470014FF0000030BD7FEA645C1ABFB9
:10037000194610467FEA655C1CBF0B46024650EAF0
:10038000013406BF52EA033591EA030F41F400211C
:1003900030BD00BF90F0000F04BF0021704730B5A2
:1003A0004FF4806404F132044FF000054FF0000177
:1003B00050E700BF90F0000F04BF0021704730B538
:1003C0004FF4806404F1320410F0004548BF40420D
:1003D0004FF000013EE700BF42004FEAE2014FEA62
:1003E00031014FEA02701FBF12F07F4393F07F4F3D
:1003F00081F06051704732F07F4208BF704793F040
:100400007F4F04BF41F40021704730B54FF4607452
:1004100001F0004521F000411CE700BF50EA010255
:1004200008BF704730B54FF000050AE050EA0102FE
:1004300008BF704730B511F0004502D5404261EB6E
:1004400041014FF4806404F132045FEA915C3FF4AF
:10045000D8AE4FF003025FEADC0C18BF03325FEA4C
:10046000DC0C18BF033202EBDC02C2F1200300FAFD
:1004700003FC20FA02F001FA03FE40EA0E0021FA22
:1004800002F11444BDE600BF70B54FF0FF0C4CF410
:10049000E06C1CEA11541DBF1CEA135594EA0C0FC2
:1004A00095EA0C0F00F0DEF82C4481EA030621EAFD
:1004B0004C5123EA4C5350EA013518BF52EA033538
:1004C00041F4801143F4801338D0A0FB02CE4FF0EA
:1004D0000005E1FB02E506F00042E0FB03E54FF01A
:1004E0000006E1FB03569CF0000F18BF4EF0010E12
:1004F000A4F1FF04B6F5007F64F5407404D25FEA0E
:100500004E0E6D4146EB060642EAC62141EA5551C0
:100510004FEAC52040EA5E504FEACE2EB4F1FD0C02
:1005200088BFBCF5E06F1ED8BEF1004F08BF5FEA80
:10053000500E50F1000041EB045170BD06F0004632
:1005400046EA010140EA020081EA0301B4EB5C04DF
:10055000C2BFD4EB0C0541EA045170BD41F48011D7
:100560004FF0000E013C00F3AB8014F1360FDEBFFC
:10057000002001F0004170BDC4F10004203C35DAD8
:100580000C341BDC04F11404C4F1200500FA05F35B
:1005900020FA04F001FA05F240EA020001F00042FC
:1005A00021F0004110EBD37021FA04F642EB060172
:1005B0005EEA430E08BF20EAD37070BDC4F10C049C
:1005C000C4F1200500FA04F320FA05F001FA04F260
:1005D00040EA020001F0004110EBD37041F100014C
:1005E0005EEA430E08BF20EAD37070BDC4F1200557
:1005F00000FA05F24EEA020E20FA04F301FA05F2BF
:1006000043EA020321FA04F001F0004121FA04F266
:1006100020EA020000EBD3705EEA430E08BF20EA36
:10062000D37070BD94F0000F0FD101F00046400070
:1006300041EB010111F4801F08BF013CF7D041EAF2
:10064000060195F0000F18BF704703F000465200F6
:1006500043EB030313F4801F08BF013DF7D043EAC7
:100660000603704794EA0C0F0CEA135518BF95EA7D
:100670000C0F0CD050EA410618BF52EA4306D1D104
:1006800081EA030101F000414FF0000070BD50EA23
:10069000410606BF1046194652EA430619D094EAAD
:1006A0000C0F02D150EA013613D195EA0C0F05D197
:1006B00052EA03361CBF104619460AD181EA0301EB
:1006C00001F0004141F0FE4141F470014FF00000A3
:1006D00070BD41F0FE4141F4780170BD70B54FF03E
:1006E000FF0C4CF4E06C1CEA11541DBF1CEA1355BE
:1006F00094EA0C0F95EA0C0F00F0A7F8A4EB0504A0
:1007000081EA030E52EA03354FEA013100F0888096
:100710004FEA03334FF0805545EA131343EA12635F
:100720004FEA022245EA111545EA10654FEA002614
:100730000EF000419D4208BF964244F1FD0404F5CD
:10074000407402D25B084FEA3202B61A65EB030529
:100750005B084FEA32024FF480104FF4002CB6EBE6
:10076000020E75EB030E22BFB61A754640EA0C0066
:100770005B084FEA3202B6EB020E75EB030E22BFA6
:10078000B61A754640EA5C005B084FEA3202B6EBE7
:10079000020E75EB030E22BFB61A754640EA9C00A6
:1007A0005B084FEA3202B6EB020E75EB030E22BF76
:1007B000B61A754640EADC0055EA060E18D04FEA34
:1007C000051545EA16754FEA06164FEAC30343EAD4
:1007D00052734FEAC2025FEA1C1CC0D111F4801FA1
:1007E0000BD141EA00014FF000004FF0004CB6E79A
:1007F00011F4801F04BF01430020B4F1FD0C88BF39
:10080000BCF5E06F3FF6AFAEB5EB030C04BFB6EB43
:10081000020C5FEA500C50F1000041EB045170BD36
:100820000EF0004E4EEA113114EB5C04C2BFD4EB63
:100830000C0541EA045170BD41F480114FF0000EE7
:10084000013C90E645EA060E8DE60CEA135594EA63
:100850000C0F08BF95EA0C0F3FF43BAF94EA0C0F66
:100860000AD150EA01347FF434AF95EA0C0F7FF4DB
:1008700025AF104619462CE795EA0C0F06D152EA2F
:1008800003353FF4FDAE1046194622E750EA410613
:1008900018BF52EA43067FF4C5AE50EA41047FF424
:1008A0000DAF52EA43057FF4EBAE12E74FF0FF3C89
:1008B00006E000BF4FF0010C02E000BF4FF0010C5A
:1008C0004DF804CD4FEA410C7FEA6C5C4FEA430CD3
:1008D00018BF7FEA6C5C1BD001B050EA410C0CBF22
:1008E00052EA430C91EA030F02BF90EA020F002084
:1008F000704710F1000F91EA030F58BF994208BFEB
:1009000090422CBFD8176FEAE37040F001007047A7
:100910004FEA410C7FEA6C5C02D150EA013C07D1FE
:100920004FEA430C7FEA6C5CD6D152EA033CD3D049
:100930005DF8040B704700BF8446104662468C4643
:100940001946634600E000BF01B5FFF7B7FF002876
:1009500048BF10F1000F01BD4DF808EDFFF7F4FF9F
:100960000CBF012000205DF808FB00BF4DF808ED2A
:10097000FFF7EAFF34BF012000205DF808FB00BF4D
:100980004DF808EDFFF7E0FF94BF012000205DF86F
:1009900008FB00BF4DF808EDFFF7CEFF94BF012024
:1009A00000205DF808FB00BF4DF808EDFFF7C4FF1D
:1009B00034BF012000205DF808FB00BF4FEA410270
:1009C00012F5001215D211D56FF47873B3EB6252A1
:1009D00012D94FEAC12343F0004343EA505311F0C8
:1009E000004F23FA02F018BF404270474FF000005A
:1009F000704750EA013005D111F0004008BF6FF098
:100A0000004070474FF00000704700BF4FEA4102BE
:100A1000B2F1E04324BFB3F5001CDCF1FE5C0DD95C
:100A200001F0004C4FEAC0024CEA5070B2F1004FA6
:100A300040EB830008BF20F00100704711F0804FA9
:100A400021D113F13872BCBF01F00040704741F46E
:100A500080114FEA5252C2F11802C2F1200C10FA72
:100A60000CF320FA02F018BF40F001004FEAC12356
:100A70004FEAD32303FA0CFC40EA0C0023FA02F3FA
:100A80004FEA4303CCE77FEA625307D150EA0133D0
:100A90001EBF4FF0FE4040F44000704701F00040A0
:100AA00040F0FE4040F40000704700BF80F000407E
:100AB00002E000BF81F0004142001FBF5FEA410336
:100AC00092EA030F7FEA226C7FEA236C6AD04FEA36
:100AD0001262D2EB1363C1BFD2184140484041407B
:100AE000B8BF5B42192B88BF704710F0004F40F42D
:100AF000000020F07F4018BF404211F0004F41F449
:100B0000000121F07F4118BF494292EA030F3FD014
:100B1000A2F1010241FA03FC10EB0C00C3F1200327
:100B200001FA03F100F0004302D5494260EB4000B6
:100B3000B0F5000F13D3B0F1807F06D340084FEA21
:100B4000310102F10102FE2A51D2B1F1004F40EB16
:100B5000C25008BF20F0010040EA0300704749007E
:100B600040EB0000013A28BFB0F5000FEDD2B0FA1B
:100B700080FCACF1080CB2EB0C0200FA0CF0AABF3E
:100B800000EBC25052421843BCBFD04018437047DC
:100B900092F0000F81F4000106BF80F400000132E2
:100BA000013BB5E74FEA41037FEA226C18BF7FEAB9
:100BB000236C21D092EA030F04D092F0000F08BFFB
:100BC0000846704790EA010F1CBF0020704712F0E2
:100BD0007F4F04D1400028BF40F00040704712F121
:100BE00000723CBF00F50000704700F0004343F086
:100BF000FE4040F4000070477FEA226216BF0846BC
:100C00007FEA23630146420206BF5FEA412390EA7E
:100C1000010F40F4800070474FF0000304E000BF74
:100C200010F0004348BF40425FEA000C08BF704725
:100C300043F0964301464FF000001CE050EA0102E9
:100C400008BF70474FF000030AE000BF50EA0102FE
:100C500008BF704711F0004302D5404261EB4101EB
:100C60005FEA010C02BF84460146002043F0B64310
:100C700008BFA3F18053A3F50003BCFA8CF2083A35
:100C8000A3EBC25310DB01FA02FC634400FA02FC3E
:100C9000C2F12002BCF1004F20FA02F243EB020045
:100CA00008BF20F00100704702F1200201FA02FCA7
:100CB000C2F1200250EA4C0021FA02F243EB02009A
:100CC00008BF20EADC7070474FF0FF0C1CEAD052DE
:100CD0001EBF1CEAD15392EA0C0F93EA0C0F6FD09F
:100CE0001A4480EA010C400218BF5FEA41211ED07D
:100CF0004FF0006343EA501043EA5111A0FB013169
:100D00000CF00040B1F5000F3EBF490041EAD3713D
:100D10005B0040EA010062F17F02FD2A1DD8B3F1B9
:100D2000004F40EBC25008BF20F00100704790F028
:100D3000000F0CF0004C08BF49024CEA502040EA7A
:100D400051207F3AC2BFD2F1FF0340EAC250704740
:100D500040F400004FF00003013A5DDC12F1190F7E
:100D6000DCBF00F000407047C2F10002410021FAF0
:100D700002F1C2F1200200FA02FC5FEA310040F108
:100D8000000053EA4C0308BF20EADC70704792F081
:100D9000000F00F0004C02BF400010F4000F013AB9
:100DA000F9D040EA0C0093F0000F01F0004C02BFB4
:100DB000490011F4000F013BF9D041EA0C018FE723
:100DC0000CEAD15392EA0C0F18BF93EA0C0F0AD029
:100DD00030F0004C18BF31F0004CD8D180EA01004F
:100DE00000F00040704790F0000F17BF90F0004FE8
:100DF000084691F0000F91F0004F14D092EA0C0FCA
:100E000001D142020FD193EA0C0F03D14B0218BF5C
:100E1000084608D180EA010000F0004040F0FE40A2
:100E200040F40000704740F0FE4040F4400070473E
:100E30004FF0FF0C1CEAD0521EBF1CEAD15392EABD
:100E40000C0F93EA0C0F69D0A2EB030280EA010CAD
:100E500049024FEA402037D04FF0805343EA111146
:100E600043EA10130CF000408B4238BF5B0042F1A4
:100E70007D024FF4000C8B4224BF5B1A40EA0C0049
:100E8000B3EB510F24BFA3EB510340EA5C00B3EB7B
:100E9000910F24BFA3EB910340EA9C00B3EBD10F69
:100EA00024BFA3EBD10340EADC001B0118BF5FEABB
:100EB0001C1CE0D1FD2A3FF650AF8B4240EBC250E4
:100EC00008BF20F0010070470CF0004C4CEA5020A5
:100ED0007F32C2BFD2F1FF0340EAC250704740F4F4
:100EE00000004FF00003013A37E792F0000F00F0E6
:100EF000004C02BF400010F4000F013AF9D040EA64
:100F00000C0093F0000F01F0004C02BF490011F4F7
:100F1000000F013BF9D041EA0C0195E70CEAD153EF
:100F200092EA0C0F08D142027FF47DAF93EA0C0FD6
:100F30007FF470AF084676E793EA0C0F04D14B02BA
:100F40003FF44CAF08466EE730F0004C18BF31F06C
:100F5000004CCAD130F000427FF45CAF31F0004366
:100F60007FF43CAF5FE700BF4FF0FF3C06E000BFFF
:100F70004FF0010C02E000BF4FF0010C4DF804CD22
:100F80004FEA40024FEA41037FEA226C18BF7FEA32
:100F9000236C11D001B052EA530C18BF90EA010F34
:100FA00058BFB2EB030088BFC81738BF6FEAE170C3
:100FB00018BF40F0010070477FEA226C02D15FEA5F
:100FC000402C05D17FEA236CE4D15FEA412CE1D0CB
:100FD0005DF8040B704700BF844608466146FFE792
:100FE0000FB5FFF7C9FF002848BF10F1000F0FBD74
:100FF0004DF808EDFFF7F4FF0CBF012000205DF86D
:1010000008FB00BF4DF808EDFFF7EAFF34BF0120F1
:1010100000205DF808FB00BF4DF808EDFFF7E0FF8A
:1010200094BF012000205DF808FB00BF4DF808EDDB
:10103000FFF7D2FF94BF012000205DF808FB00BF3E
:101040004DF808EDFFF7C8FF34BF012000205DF820
:1010500008FB00BF42000ED2B2F1FE4F0BD34FF09F
:101060009E03B3EB126209D44FEA002343F000431E
:1010700023FA02F070474FF00000704712F1610F41
:1010800001D1420202D14FF0FF3070474FF0000013
:10109000704700BF844641EA000313F0030349D1BF
:1010A000403A23D30B6803604B6843608B688360CE
:1010B000CB68C3600B6903614B6943618B698361D2
:1010C000CB69C3610B6A03624B6A43628B6A8362BA
:1010D000CB6AC3620B6B03634B6B43638B6B8363A2
:1010E000CB6BC36340304031403ADBD230320BD35C
:1010F0000B6803604B6843608B688360CB68C36098
:1011000010301031103AF3D20C3205D351F8043BB1
:1011100040F8043B043AF9D2043208D0D2071CBF8D
:1011200011F8013B00F8013B01D30B8803806046B6
:10113000704700BF082A13D38B07B1D010F0030308
:10114000AED0C3F10403D21ADB071CBF11F8013B78
:1011500000F8013BA4D331F8023B20F8023B9FE7A3
:10116000043AD9D3013A11F8013B00F8013BF9D216
:101170000B7803704B7843708B78837060467047B0
:101180004FEA410C7FEA6C5C02D150EA013C0AD183
:101190004FEA430C7FEA6C5C02D152EA033C02D175
:1011A0004FF0000070474FF0010070470348044BB8
:1011B000834202D0034B03B118477047E406002076
:1011C000E4060020000000000548064B1B1AD90F5A
:1011D00001EBA301491002D0034B03B1184770473C
:1011E000E4060020E40600200000000010B5064CD4
:1011F000237843B9FFF7DAFF044B13B10448AFF388
:1012000000800123237010BDE806002000000000CC
:10121000209B000808B5054B1BB105490548AFF3F5
:101220000080BDE80840FFF7CFBF00BF000000000E
:10123000EC060020209B000808B502460221024867
:1012400001F0ADFB08BD00BF000C014008B502462F
:101250000121024801F0A3FB08BD00BF000C0140C2
:1012600008B50120FFF7F2FF0120FFF7E5FF00209E
:10127000FFF7ECFF0020FFF7DFFF08BD08B50020F7
:10128000FFF7E4FF0120FFF7D7FF0120FFF7DEFFA4
:1012900008BD38B5054600240FE0802323411D42D8
:1012A00014BF01200020FFF7D1FF0120FFF7C4FF8A
:1012B0000020FFF7C1FF0134E4B2072CEDD9012073
:1012C000FFF7BAFF0020FFF7B7FF38BD10B504469F
:1012D000FFF7C6FF7820FFF7DCFF0020FFF7D9FFFC
:1012E0002046FFF7D6FFFFF7C9FF10BD70B50646D1
:1012F0000D46FFF7B5FF7820FFF7CBFF4020FFF743
:10130000C8FF002404E0305DFFF7C3FF0134E4B2FE
:10131000AC42F8D3FFF7B2FF70BD10B50C4640F0F9
:10132000B000FFF7D3FF200940F01000FFF7CEFF19
:1013300004F00F00FFF7CAFF10BD000010B5002435
:101340000BE000212046FFF7E8FF8021044800EB76
:10135000C410FFF7CBFF0134E4B2072CF1D910BD64
:101360000407002000200BE0084A02EBC012002115
:10137000D1540133DBB213F0800FF5D00130C0B28D
:10138000072801D80023F6E7704700BF04070020B4
:1013900008B500F093F9AE20FFF798FFD520FFF7CE
:1013A00095FF8020FFF792FFA820FFF78FFF3F20D7
:1013B000FFF78CFFD320FFF789FF0020FFF786FFA0
:1013C0004020FFF783FFA120FFF780FFC820FFF731
:1013D0007DFFDA20FFF77AFF1220FFF777FF8120E9
:1013E000FFF774FFCF20FFF771FFD920FFF76EFFE3
:1013F000F120FFF76BFFDB20FFF768FF3020FFF7DE
:1014000065FFA420FFF762FFA620FFF75FFF8D2096
:10141000FFF75CFF1420FFF759FFAF20FFF756FFDF
:10142000FFF7A0FFFFF78AFF08BD00002DE9F0419C
:1014300014461D460B4634E046F3CF061C4F07EB1F
:10144000C61717F80280D3F1000E03F007060EF05E
:10145000070E58BFCEF100064FF0010E0EFA06FE41
:101460006FEA0E0E4FFA8EFE08EA0E0807F80280A9
:101470000CF1010C0FFA8CFC624600EB040EF445F3
:101480000DDA1FFA8CFCBCF17F0FF1D8002BEFDBDB
:101490003F2BEDDC1E46002BCEDADE1DCCE7013300
:1014A0001BB24A19934201DA8446E5E7BDE8F081B0
:1014B000040700202DE9F04F83B006460C46154680
:1014C0009A460C9FFFF7B2FF4FF0000B4DE0E21D74
:1014D0000DE0013A083116E00133DBB2AB423ED2F7
:1014E0009C46F0187F28F7D82246002CEFDBD2105C
:1014F000D4F1000E04F007010EF0070E58BFCEF134
:101500000001002CE5DB4244072A0FD8DFF87CE01D
:101510000EEBC21E1EF8009008FB05CB17F80BB0AF
:101520000BFA01FB49EA0B090EF8009002F1010EDB
:10153000BEF1070FD0D87246DFF850E00EEBC212B2
:1015400012F800E008FB05CC17F80CC0C1F1080147
:101550004CFA01F14EEA010E02F800E0BCE7DDF8BA
:1015600004B00BF1010B5FFA8BFBBAF1010307D456
:10157000D846BBEBE30F05DC0023CDF804B0ADE7A4
:101580000733F5E703B0BDE8F08F00BF0407002084
:1015900000B583B0082B04D0062B0CD003B05DF847
:1015A00004FB203A0A4B03EB02130093102308229A
:1015B000FFF780FFF2E7203A02EB4202054B03EB14
:1015C0004203009308230622FFF774FFE6E700BFFB
:1015D000749D0008389B00082DE9F04180460F46B5
:1015E00016461D46002408E005FB04802B463946BC
:1015F00000B2FFF7CDFF0134E4B2325D002AF3D12F
:10160000BDE8F08100B585B00023019302930393F8
:101610001048114A02608360037303754FF460221F
:10162000C26143600123036100F0A8FF60B9002399
:10163000019301220292039301A9064800F01AFEC9
:1016400028B905B05DF804FB00F08CF9EFE700F075
:1016500089F9F6E7040B00200024014000B587B0AB
:10166000002302930393049305930268114B9A425B
:1016700002D007B05DF804FB03F56C439A6942F4AD
:1016800000729A619A6902F400720092009A9A6953
:1016900042F004029A619B6903F004030193019BE9
:1016A000012302930323039302A9034801F062F884
:1016B000DFE700BF00240140000801402DE9F043AE
:1016C00089B000240494059406940794364B9A69D3
:1016D00042F010029A619A6902F010020092009A98
:1016E0009A6942F020029A619A6902F020020192FE
:1016F000019A9A6942F004029A619A6902F004021E
:101700000292029A9A6942F008029A619B6903F078
:1017100008030393039BDFF8949022464FF4005193
:10172000484601F03CF9DFF8888022460321404614
:1017300001F035F91F4F01224FF40071384601F0D6
:101740002EF922464FF48061384601F028F94FF413
:10175000005304930126059606960225079504A9D1
:10176000484601F007F803230493112305930694D8
:10177000079504A9404600F0FDFF4FF47043049321
:101780000594069604A9404600F0F4FF4FF4C063A8
:10179000049305960695079504A9384600F0EAFFDC
:1017A00009B0BDE8F08300BF001002400010014006
:1017B000000C014000080140F8B50368B3F1804F08
:1017C00000D0F8BD5C4B1C685C4B1868FFF742FC0E
:1017D00060635B4C204600F031FE4FF47A71204686
:1017E00000F082FC204600F041FDFFF715FA554B52
:1017F00018605549FFF71CFBFEF7EEFD04460D4649
:1018000045A3D3E90023FEF73FFE06460F4644A357
:10181000D3E9002320462946FEF736FE02460B4652
:1018200020462946FEF730FE02460B463046394632
:10183000FEF774FC06460F463BA3D3E9002320467F
:101840002946FEF721FE02460B4620462946FEF7B2
:101850001BFE02460B4620462946FEF715FE0246B1
:101860000B4630463946FEF757FC31A3D3E9002337
:10187000FEF754FCFFF7CAF80146344B1860344BAE
:101880001868FFF717F9FEF7A7FD04460D46314B20
:10189000C3E90645D3E9106732463B46FFF77AF8BD
:1018A00038B9324607F1004320462946FFF768F869
:1018B00020B1294B93F90030012B05D04FF4005192
:1018C000264801F072F87CE7224BD3E9002320463A
:1018D0002946FEF7D9FD04460D46184E3068FEF73E
:1018E0007BFD22462B46FEF719FCFFF78FF80446D6
:1018F00030601B49FFF7A4FB10B1194A3260DDE7E5
:1019000000212046FFF77EFB0028D7D00B4B00229A
:101910001A60D3E7AFF3008096438B6CE7FBE93F97
:1019200089B5F81400E3393FFC6D4F90D8EEFE3EC8
:10193000A01A2FDD2406E33F2C0C00203C0B0020D6
:10194000040B0020380B00200000C842400B002090
:10195000440B0020980B0020340B002000100140A5
:101960000000C44272B6FEE700B595B028220021FF
:101970000DEB020002F0BAF90023059306930793DA
:1019800008930993019302930393049301220A920B
:101990004FF480330B930E920222119212934FF464
:1019A000E01313930AA801F01FF8C8B90F23059399
:1019B00002210691002307934FF480620892099355
:1019C00005A801F043FA68B9022301934FF40043DC
:1019D000039301A801F006FB30B915B05DF804FBD4
:1019E000FFF7C0FFFFF7BEFFFFF7BCFF00000000DE
:1019F00080B500F041FBFFF7B7FFFFF75FFE00F097
:101A000093FA00F0FFF9FFF7FDFD994801F08CFC17
:101A10000021984801F040FFFFF7BAFCFFF7A2FC55
:101A2000954B964A1A60964B00221A60954B964A3F
:101A30001A600023954A1370954A1370954B002045
:101A40009549C3E9000186A1D1E90001C3E910016C
:101A5000D2E00A2000F034FB4FF400418F4800F040
:101A600097FF0028F8D08A4A92F90030013B18BF4E
:101A700001231370C8E000224FF48061884800F011
:101A80008EFFCAE001224FF48061854800F087FF95
:101A9000C3E00A2000F014FB4FF480517F4800F0AF
:101AA00077FF0028F8D0744C2068FEF795FC6EA3F1
:101AB000D3E90023FEF732FBFEF7A8FF2060B4E075
:101AC0000A2000F0FDFA4FF40051744800F060FF66
:101AD0000028F8D0684C2068FEF77EFC62A3D3E9AA
:101AE0000023FEF719FBFEF791FF2060A5E000211F
:101AF0002046FFF787FA002840F0AC804FF40071D1
:101B0000674800F045FFDFF884A18AF800005A4BCF
:101B10001868FEF761FC02460B46624CDFF88881CC
:101B20002146404602F078F8554B1868FEF754FC01
:101B300002460B465D4F2146384602F06DF8514B88
:101B40001868FEF749FC02460B46594E21463046BE
:101B500002F062F8DFF85C91574D9AF9002049468F
:101B6000284602F059F8554C494B93F90020494654
:101B7000204602F051F80623514A01210846FFF79A
:101B80002BFD06234F4A0D210120FFF725FD0623DB
:101B90004D4A1A210120FFF71FFD06234B4A27213A
:101BA0000120FFF719FD0623494A34210120FFF7E0
:101BB00013FD0623424601214F20FFF70DFD0623AA
:101BC0003A460D214F20FFF707FD062332461A2122
:101BD0004F20FFF701FD06232A4627214F20FFF75C
:101BE000FBFC0623224634214F20FFF7F5FCFFF7CC
:101BF000A5FB0A2000F064FA4FF40041274800F0EA
:101C0000C7FE00283FF425AF214B93F90030002B8D
:101C10003FF431AF012B3FF435AF4FF480511F48F3
:101C200000F0B6FE00283FF434AF4FF400511B48DB
:101C300000F0AEFE00283FF443AF124B1C6825496C
:101C40002046FFF7FDF900283FF451AF0D4B214A24
:101C50001A6053E70B4B00221A604FE7AFF3008086
:101C60009A9999999999B93F9A9999999999C93F46
:101C7000E40B00202C0C0020440B00200000A040AE
:101C8000400B00203C0B002000004842350B002098
:101C9000340B0020980B00200000F03F000C0140A6
:101CA0000008014064A30008880B0020780B002086
:101CB000680B00206CA30008580B0020480B002084
:101CC00070A300087CA3000888A3000894A3000860
:101CD000A0A300080000C44282B00E4B9A6942F0F3
:101CE00001029A619A6902F001020092009ADA698F
:101CF00042F08052DA61DB6903F080530193019B6B
:101D0000054A536823F0E06343F00073536002B068
:101D1000704700BF0010024000000140FEE7FEE7F0
:101D2000FEE7FEE7FEE770477047704708B500F032
:101D3000B5F908BD08B5024801F02EFB08BD00BF8B
:101D4000E40B00200120704708B502F073F8162359
:101D500003604FF0FF3008BD08B54FF0FF31FFF7CB
:101D6000F3FFFEE770B50C461646002506E0AFF31C
:101D70000080214601F8010B01350C46B542F6DB27
:101D8000304670BD70B50C461646002504E014F8C8
:101D9000010BAFF300800135B542F8DB304670BD72
:101DA0004FF0FF3070474FF400534B6000207047F6
:101DB000012070470020704710B503460C4A0D49BA
:101DC0000D48006840B10C4800680344521A934221
:101DD00006D8094A136010BD0748084C0460F2E7B2
:101DE00002F028F80C2303604FF0FF30F3E700BF48
:101DF0000050002000040000E00B0020900F0020A5
:101E00007047000000B587B000230293039304934A
:101E100005930093019315484FF08042026041F60C
:101E20001F42426083600922C2600361836101F046
:101E3000A5FB90B94FF48053029302A90B4801F01F
:101E40009DFC68B90023009301936946074801F09F
:101E500091FD40B907B05DF804FBFFF783FDE9E7AA
:101E6000FFF780FDEEE7FFF77DFDF3E7E40B0020D1
:101E70000268094B9A4200D0704782B003F5644370
:101E80009A6942F400629A619B6903F400630193CA
:101E9000019B02B0704700BF002C01400368B3F102
:101EA000804F00D0704700B583B003F50433DA6982
:101EB00042F00102DA61DB6903F001030193019B47
:101EC000002211461C2000F023FC1C2000F030FCF6
:101ED00003B05DF804FB000000B587B00023029357
:101EE00003930493059302680D4B9A4202D007B006
:101EF0005DF804FB03F564439A6942F004029A61B9
:101F00009B6903F004030193019B4FF480730293D8
:101F100002230393059302A9024800F02BFCE6E795
:101F2000002C01400008014010B592B0002410942C
:101F3000119409940A940B940C940D940E940F949C
:101F40002022214601A801F0D1FE2348234B036043
:101F50004723436084606223C3600461446180233B
:101F6000836101F037FB002829D1002310931193DE
:101F700010A9194801F0FEFC20BB60230993002240
:101F80000A920B920C920D920E920F9209A912488E
:101F900001F07AFBC8B900230193029303930493E1
:101FA00005934FF400520692089301A90A4801F0E4
:101FB00017FD68B90848FFF78FFF12B010BDFFF793
:101FC000D1FCD2E7FFF7CEFCD7E7FFF7CBFCE2E787
:101FD000FFF7C8FCEEE700BF2C0C0020002C0140EE
:101FE000FFF70EFF0B480C490C4A002302E0D458BF
:101FF000C4500433C4188C42F9D3094A094C002355
:1020000001E013600432A242FBD301F019FFFFF795
:10201000EFFC704700000020E4060020F0A7000855
:10202000E80600208C0F0020FEE7000010B50446F3
:102030000E4B1A784FF47A73B3FBF2F30C4A106824
:10204000B0FBF3F000F082FB68B90F2C01D901203E
:102050000AE0002221464FF0FF3000F059FB054B0B
:102060001C60002000E0012010BD00BF0400002023
:10207000000000200800002008B5074A136843F05C
:1020800010031360032000F031FB0F20FFF7CEFF99
:10209000FFF722FE002008BD00200240034A11681D
:1020A000034B1B780B441360704700BF740C002077
:1020B00004000020014B1868704700BF740C00201A
:1020C00038B50446FFF7F6FF0546B4F1FF3F02D0EE
:1020D000044B1B781C44FFF7EDFF401BA042FAD3D2
:1020E00038BD00BF04000020F0B583B005460C46A3
:1020F00000230193FFF7DEFF2B689A6812F4807FBC
:1021000023D107465A6812F4807F03D1DB6A13F4A7
:10211000700F29D0504B1E68022000F0EFFFB6FB75
:10212000F0F62B6819694D4A114236D1D96802F18F
:102130005C42114231D11969494A114240D1DA68F1
:10214000484B1A423ED0292341E0AB6A43F02003BA
:10215000AB62002385F82430012003B0F0BD2B686A
:102160001B6813F0020F0FD02B681B6813F0020FCF
:102170004FD1B4F1FF3FF7D0002CF0D0FFF79AFF1A
:10218000C31BA342F0D9EAE7AB6A43F00403AB6296
:10219000002385F824300320DFE71969304A114213
:1021A00004D1D96802F16E4211420DD019692E4A4C
:1021B0000A405AB9DA682C4B13405BB1FC2306E0A5
:1021C000292304E0142302E0542300E0FC2303FB52
:1021D00006F607E05423FAE7019BB34210D3019BB4
:1021E00001330193019BB34213D2B4F1FF3FF6D008
:1021F000002CF1D0FFF75EFFC01BA042EFD9EBE748
:10220000AB6A43F00403AB62002385F8243003205B
:10221000A3E72B686FF012021A60AB6A43F40073F5
:10222000AB622B689B6803F46023B3F5602F01D089
:10223000002092E7287B60B9AB6A23F48073AB621D
:10224000AB6A13F4805F88D1AB6A43F00103AB62E1
:1022500083E7002081E700BF00000020244992248A
:102260009224491292244900499224000368D86CB0
:102270007047000030B482B00022019290F8242010
:10228000012A00F08F800346012280F824204A684A
:10229000062A2DD80468606B02EB8202053A4FF0E3
:1022A0001F0C0CFA02FC20EA0C000D6805FA02F281
:1022B000024362630A68092A38D91C68E06802EBA5
:1022C00042021E3A4FF0070C0CFA02FC20EA0C0006
:1022D0008D6805FA02F20243E2600A68103A012AA8
:1022E00034D90020002283F8242002B030BC70478B
:1022F0000C2A0DD80568286B02EB8202233A1F24B2
:10230000944020EA04000C68944020432863D1E7FD
:102310000568E86A02EB8202413A1F24944020EAF1
:1023200004000C6894402043E862C3E71C682069FD
:1023300002EB42024FF0070C0CFA02FC20EA0C0000
:102340008D6805FA02F202432261C6E71A68164850
:10235000824205D09A6A42F020029A620120C1E7C7
:10236000906810F4000F1BD1906840F4000090605A
:102370000A68102A01D00020B4E70C4A12680C4900
:10238000A1FB0212920C02EB82025200019202E0C7
:10239000019A013A0192019A002AF9D10020A1E79D
:1023A00000209FE70220A0E7002401400000002059
:1023B00083DE1B4330B583B00023019303689A6822
:1023C00012F0010F33D104469A6842F001029A607C
:1023D000184B1B68184AA2FB03239B0C019302E0D5
:1023E000019B013B0193019B002BF9D1FFF762FE9A
:1023F000054623689B6813F0010F16D1FFF75AFEBC
:10240000431B022BF5D923689B6813F0010FF0D111
:10241000A36A43F01003A362E36A43F00103E3629B
:10242000002384F82430012002E0002000E0002096
:1024300003B030BD0000002083DE1B4390F8243041
:10244000012B68D010B50446012380F82430FFF733
:10245000B1FF00285BD1A36A23F4407323F001038A
:1024600043F48073A36223682C4A934227D0A26A64
:1024700022F48012A2625A6812F4806F05D0A26A18
:1024800022F4405242F48052A262A26A12F4805FA7
:102490002BD0E26A22F00602E262002284F82420B5
:1024A0006FF002021A6023689A6802F46022B2F5A3
:1024B000602F1DD09A6842F480129A602AE0A2F53B
:1024C0008062526812F4702FD1D0A26A42F4801256
:1024D000A262134A526812F4806FD6D0A26A22F424
:1024E000405242F48052A262CFE70022E262D4E777
:1024F0000A4A934204D09A6842F4A0029A6009E022
:10250000A2F58062526812F4702FD3D1F3E7002352
:1025100084F8243010BD0220704700BF002801401D
:102520000024014038B503689A6812F0010F01D108
:10253000002038BD04469A6822F001029A60FFF735
:10254000B9FD054623689B6813F0010F13D0FFF710
:10255000B1FD431B022BF5D923689B6813F0010FD3
:10256000F0D0A36A43F01003A362E36A43F00103CF
:10257000E3620120DDE70020DBE7000000287BD0DC
:1025800070B50446836A002B4DD02046FFF7CAFF82
:10259000A36A13F0100369D1002867D1A26A22F45C
:1025A000885222F0020242F00202A2626268E169ED
:1025B0000A43217B42EA4102A568B5F5807F02D03B
:1025C000012D36D01D46267D012E35D02668716836
:1025D00021F46941294371602568AE68274931407B
:1025E0001143A960A168B1F5807F01D0012902D112
:1025F0002369013B1B052568E96A21F470010B433F
:10260000EB62236899681E4B0B409A4225D0A36A5F
:1026100023F0120343F01003A362E36A43F00103C3
:10262000E362012027E0C36280F82430FFF716F848
:10263000ABE74FF48075C6E731B9A169013945EAC6
:10264000413141F40065C1E7A16A41F02001A16276
:10265000E16A41F00101E162B8E70023E362A36AA5
:1026600023F0030343F00103A36204E0A36A43F0F1
:102670001003A362012070BD01207047FDF7E1FF48
:10268000FE0E1FFF002808DB0901C9B200F16040FF
:1026900000F5614080F80013704700F00F00090159
:1026A000C9B2014B1954704714ED00E000B500F0B9
:1026B0000700C0F1070CBCF1040F28BF4FF0040C59
:1026C000031D062B0FD9C31E4FF0FF3E0EFA0CF070
:1026D00021EA000199400EFA03FE22EA0E0241EAC5
:1026E00002005DF804FB0023EEE70000074AD36810
:1026F00023F4E0631B041B0C000200F4E0600343BE
:1027000043F0BF6343F40033D360704700ED00E053
:1027100010B50446054BD868C0F30220FFF7C6FF8A
:1027200001462046FFF7AEFF10BD00BF00ED00E000
:10273000002807DB00F01F02400901239340024AF2
:1027400042F82030704700BF00E100E00138B0F1EE
:10275000807F0BD24FF0E0235861054AF02182F8C8
:1027600023100020986107221A61704701207047EA
:1027700000ED00E070B582B00024A446A1E07E4DDB
:10278000AB4214D00CD8A5F58015AB420FD005F59F
:102790007025AB420BD0A5F58015AB4210D106E0F9
:1027A000764DAB4203D005F58035AB4208D18B683E
:1027B000002B50D0012B49D04261082400E0CC68A6
:1027C000BEF1FF0F49D806464FEA8C0233680F2549
:1027D000954023EA050304FA02F2134333604B6881
:1027E00013F0805F6BD0664B9A6942F001029A61E8
:1027F0009B6903F001030193019B4FEA9C02951C26
:10280000604B53F825600CF00305AD000F23AB407F
:1028100026EA03065C4B984226D003F58063984273
:1028200000F08C8003F58063984200F0898003F506
:102830008063984216D0042317E0CC680434BFE7C5
:10284000CC680834BCE7CC680C34B9E702610824D2
:10285000B6E70024B4E70424B2E7061DACF1080291
:102860009200B3E7032300E00023AB40334302327E
:10287000444D45F822304B6813F4801F62D0434A20
:10288000936843EA0E0393604B6813F4001F5FD014
:102890003E4AD36843EA0E03D3604B6813F4003F0B
:1028A0005CD03A4A536843EA0E0353604B6813F412
:1028B000803F59D0354A136843EA0E0313600CF188
:1028C000010C0B6833FA0CF254D0012202FA0CF21C
:1028D00003EA020E32EA0303F1D14B68122B3FF6F2
:1028E0004EAF122B3FF66CAF01A555F823F000BF99
:1028F000AF270008BF270008412800085328000818
:10290000C1270008C1270008C1270008C127000807
:10291000C1270008C1270008C1270008C1270008F7
:10292000C1270008C1270008C1270008C1270008E7
:10293000C12700083B28000847280008012394E726
:10294000022392E7114A936823EA0E0393609BE700
:102950000E4AD36823EA0E03D3609EE70B4A5368FE
:1029600023EA0E035360A1E7084A136823EA0E0323
:102970001360A4E702B070BD000022100000311007
:102980000010024000000140000801400004014026
:102990008368194201D001207047002070470AB1B6
:1029A00001617047090401617047C36801EA0302CD
:1029B00021EA030141EA02410161704782B0084BFC
:1029C0001B68084AA2FB03235B0A00FB03F3019385
:1029D00000BF019B5A1E0192002BF9D102B0704733
:1029E00000000020D34D6210002800F0F18170B586
:1029F00082B00446036813F0010F2CD0994B5B683A
:102A000003F00C03042B1DD0964B5B6803F00C0302
:102A1000082B12D06368B3F5803F41D0002B55D10D
:102A200003F1804303F504331A6822F480321A60FC
:102A30001A6822F480221A6037E08A4B5B6813F42C
:102A4000803FE7D0874B1B6813F4003F03D06368D7
:102A5000002B00F0BF81236813F0020F75D0814B6B
:102A60005B6813F00C0F5FD07E4B5B6803F00C03C8
:102A7000082B54D02369002B00F08A807A4B012266
:102A80001A60FFF717FB0546764B1B6813F0020F21
:102A900075D1FFF70FFB401B0228F5D903209EE1FB
:102AA000704A136843F480331360636843B3FFF7DD
:102AB00001FB05466B4B1B6813F4003FCBD1FFF7BE
:102AC000F9FA401B6428F5D9032088E1B3F5A02F5B
:102AD00009D0644B1A6822F480321A601A6822F412
:102AE00080221A60E1E703F18043A3F53C331A68C2
:102AF00042F480221A601A6842F480321A60D4E7E5
:102B0000FFF7D8FA0546574B1B6813F4003FA2D0D5
:102B1000FFF7D0FA401B6428F5D903205FE1514B41
:102B20005B6813F4803FA5D14E4B1B6813F0020F76
:102B300003D02369012B40F04F814A4A136823F0E8
:102B4000F803616943EAC1031360236813F0080FB7
:102B500033D0A369002B5CD0434B0122C3F88024FF
:102B6000FFF7A8FA05463F4B5B6A13F0020F21D12D
:102B7000FFF7A0FA401B0228F5D903202FE1394ABC
:102B8000136823F0F803616943EAC1031360DCE7CB
:102B9000354B00221A60FFF78DFA0546314B1B6852
:102BA00013F0020FD1D0FFF785FA401B0228F5D9A8
:102BB000032014E10120FFF701FF236813F0040F45
:102BC00000F09680274BDB6913F0805F34D1254BF2
:102BD000DA6942F08052DA61DB6903F080530193D5
:102BE000019B0125214B1B6813F4807F26D0E368ED
:102BF000012B3DD0002B53D103F1804303F5043367
:102C00001A6A22F001021A621A6A22F004021A6297
:102C100033E0154B0022C3F88024FFF74BFA05463A
:102C2000104B5B6A13F0020FC7D0FFF743FA401B4B
:102C30000228F5D90320D2E00025D3E70B4A136818
:102C400043F480731360FFF735FA0646074B1B68A1
:102C500013F4807FCBD1FFF72DFA801B6428F5D9C0
:102C60000320BCE00010024000004242007000401F
:102C70005F4A136A43F001031362E36833B3FFF75B
:102C800019FA06465A4B1B6A13F0020F2FD1FFF7B1
:102C900011FA801B41F288339842F3D903209EE059
:102CA000052B09D0524B1A6A22F001021A621A6AE5
:102CB00022F004021A62E0E74D4B1A6A42F0040265
:102CC0001A621A6A42F001021A62D6E7FFF7F2F9B5
:102CD0000646474B1B6A13F0020F08D0FFF7EAF9CC
:102CE000801B41F288339842F3D9032077E0E5B99D
:102CF000E369002B72D03E4A526802F00C02082AA7
:102D000056D0022B17D03B4B00221A66FFF7D2F9A0
:102D10000446374B1B6813F0007F47D0FFF7CAF912
:102D2000001B0228F5D9032059E0314AD36923F06A
:102D30008053D361DCE72F4B00221A66FFF7BAF904
:102D400005462B4B1B6813F0007F06D0FFF7B2F946
:102D5000401B0228F5D9032041E0236AB3F5803FE8
:102D60001AD023494B6823F47413226A606A024321
:102D700013434B601F4B01221A66FFF79BF9044671
:102D80001B4B1B6813F0007F0ED1FFF793F9001B5C
:102D90000228F5D9032022E0154A536823F40033B2
:102DA000A1680B435360DCE7002018E0002016E028
:102DB000012B16D00E4B5B6803F48031226A9142DE
:102DC00011D103F47013626A93420ED1002006E021
:102DD00001207047012002E0012000E0002002B045
:102DE00070BD0120FBE70120F9E70120F7E700BFF4
:102DF00000100240000042420F4B5B6803F00C02DF
:102E0000082A01D00D487047C3F383420C49885CFF
:102E100013F4803F0BD0084B5B68C3F34043094A6F
:102E2000D35C064A02FB00F0B0FBF3F07047064BA0
:102E300003FB00F0704700BF0010024000127A0050
:102E400074A5000870A5000800093D00002800F0E6
:102E5000A08070B50D460446524B1B6803F0070373
:102E60008B420BD24F4A136823F007030B431360C6
:102E7000136803F007038B4240F08D80236813F042
:102E8000020F17D013F0040F04D0474A536843F4DD
:102E9000E0635360236813F0080F04D0424A53687C
:102EA00043F460535360404A536823F0F003A16831
:102EB0000B435360236813F0010F31D06368012B7B
:102EC00020D0022B25D0384A126812F0020F64D0AD
:102ED00035494A6822F0030213434B60FFF7EAF8D2
:102EE0000646314B5B6803F00C036268B3EB820F5C
:102EF00016D0FFF7DFF8801B41F288339842F0D9F3
:102F0000032045E0284A126812F4003FE0D1012076
:102F10003EE0254A126812F0007FD9D1012037E047
:102F2000204B1B6803F00703AB420AD91D4A136804
:102F300023F007032B431360136803F00703AB422E
:102F40002DD1236813F0040F06D0174A536823F4D9
:102F5000E063E1680B435360236813F0080F07D068
:102F6000114A536823F46053216943EAC103536053
:102F7000FFF742FF0C4B5B68C3F303130B4AD35CB0
:102F8000D8400B4B18600B4B1868FFF74FF8002028
:102F900070BD012070470120FAE70120F8E7012009
:102FA000F6E700BF002002400010024060A50008C4
:102FB0000000002008000020014B1868704700BF87
:102FC0000000002008B5FFF7F7FF044B5B68C3F370
:102FD000C223034AD35CD84008BD00BF00100240A2
:102FE00058A5000870B582B00446036813F0010FBD
:102FF00036D03F4BDB6913F0805F49D13C4BDA6937
:1030000042F08052DA61DB6903F080530193019B47
:103010000125384B1B6813F4807F3BD0344B1B6A6F
:1030200013F4407313D0626802F440729A420ED0D7
:103030002F4A136A23F440702F490126C1F84064D7
:103040000026C1F84064106213F0010F36D1284AFF
:10305000136A23F4407361680B431362002D3ED161
:10306000236813F0020F06D0214A536823F440432B
:10307000A1680B435360236813F0100F34D01C4A2F
:10308000536823F48003E1680B43536000202CE075
:103090000025BEE7174A136843F480731360FFF7F7
:1030A00009F80646134B1B6813F4807FB6D1FFF76F
:1030B00001F8801B6428F5D9032016E0FEF7FAFF1B
:1030C00006460B4B1B6A13F0020FC0D1FEF7F2FF4E
:1030D000801B41F288339842F3D9032005E0D3697D
:1030E00023F08053D361BBE7002002B070BD00BF66
:1030F00000100240007000400000424208B5022863
:103100004ED0102803D0012828D0002052E02B4BAD
:103110005A68186810F080704CD0C2F38343284975
:10312000C85C12F4803F15D0244B5B68C3F3404366
:10313000244AD25C244BB3FBF2F303FB00F01F4B99
:103140005B6813F4800F35D14000204BA3FB0030A7
:1031500040082FE01E4B03FB00F0F0E7174B1B6A03
:1031600040F202321A40B2F5817F24D003F440735A
:10317000B3F5007F04D0B3F5407F09D0002019E0FB
:103180000E4A526A12F0020FF5D049F6404011E0A3
:103190000A4B186810F400300CD04FF2244009E0BC
:1031A000FFF710FF054B5B68C3F3813301335B000E
:1031B000B0FBF3F008BD4FF40040FBE70010024005
:1031C00088A5000884A5000800127A00ABAAAAAA64
:1031D00000093D0030B4026A036A23F00103036270
:1031E0004568836923F073030C681C4322F00202D4
:1031F0008B6813430B4A904206D0456084614A684D
:103200004263036230BC704723F00803CA681A4364
:1032100022F0040325F440754A692A438D69154359
:10322000EBE700BF002C014030B4036A026A22F4CD
:10323000807202624468C26922F073020D6815430D
:1032400023F400738A6843EA02230D4A904206D0B1
:103250004460C5614A68C263036230BC704723F4AE
:103260000063CA6843EA022323F4806324F44054D1
:103270004A6944EA02148A6944EA0214E8E700BF92
:10328000002C014030B4036A026A22F480520262C8
:103290004468C26922F4E6420D6842EA052223F43A
:1032A00000538D6843EA0533074DA84206D04460B9
:1032B000C2614A680264036230BC704724F48044EF
:1032C0004D6944EA8514F2E7002C014010B4036A0A
:1032D000046A24F001040462846924F0F00C4CEACE
:1032E000021223F00A030B438261036210BC704791
:1032F00010B4036A046A24F010040462846924F49C
:10330000704C4CEA023223F0A00343EA01138261BD
:10331000036210BC7047836823F070030B4343F0D3
:10332000070383607047000090F83D30DBB2012B4B
:1033300027D1022380F83D300268D36843F00103AF
:10334000D3600368114A934210D0B3F1804F0DD07F
:10335000A2F59432934209D002F58062934205D0DF
:103360001A6842F001021A60002070479A6802F061
:103370000702062A07D01A6842F001021A600020EC
:103380007047012070470020704700BF002C0140AB
:10339000704770477047704770B504460368DE6831
:1033A0001D6915F0020F10D016F0020F0DD06FF04E
:1033B00002021A610123037703689B6913F0030F6C
:1033C0005ED0FFF7E6FF0023237715F0040F12D03D
:1033D00016F0040F0FD023686FF004021A61022365
:1033E000237723689B6913F4407F4FD02046FFF773
:1033F000D0FF0023237715F0080F12D016F0080F26
:103400000FD023686FF008021A6104232377236822
:10341000DB6913F0030F40D02046FFF7BAFF00230B
:10342000237715F0100F12D016F0100F0FD023686D
:103430006FF010021A61082323772368DB6913F405
:10344000407F31D02046FFF7A4FF0023237715F0FB
:10345000010F02D016F0010F2DD115F0800F02D010
:1034600016F0800F2FD115F0400F02D016F0400F4C
:1034700031D115F0200F02D016F0200F33D170BDDE
:10348000FFF786FF2046FFF785FF9CE72046FFF702
:103490007FFF2046FFF77EFFABE72046FFF778FF70
:1034A0002046FFF777FFBAE72046FFF771FF204677
:1034B000FFF770FFC9E723686FF001021A61204629
:1034C000FEF77AF9C9E723686FF080021A61204697
:1034D00000F0B0FAC7E723686FF040021A61204697
:1034E000FFF759FFC5E723686FF020021A612046F5
:1034F00000F09FFAC3E7000003681F4A90420AD019
:10350000B0F1804F07D0A2F59432904203D002F57B
:103510008062904203D123F070034A681343164A35
:1035200090420AD0B0F1804F07D0A2F59432904279
:1035300003D002F58062904203D123F44073CA683D
:10354000134323F080034A69134303608B68C3620B
:103550000B688362084B98420AD0012343610369D8
:1035600013F0010F03D0036923F0010303617047D7
:103570000B690363F1E700BF002C014040B310B5B5
:10358000044690F83D30F3B1022384F83D302146E3
:1035900051F8040BFFF7B0FF012384F8463084F89C
:1035A0003E3084F83F3084F8403084F8413084F86D
:1035B000423084F8433084F8443084F8453084F84D
:1035C0003D30002010BD80F83C30FEF767FCDBE7A3
:1035D0000120704740B310B5044690F83D30F3B178
:1035E000022384F83D30214651F8040BFFF784FF95
:1035F000012384F8463084F83E3084F83F3084F864
:10360000403084F8413084F8423084F8433084F804
:10361000443084F8453084F83D30002010BD80F8F7
:103620003C30FEF725FCDBE70120704730B4036A2D
:10363000026A22F0100202624468826922F4E642C1
:103640000D6842EA052223F020038D6843EA051342
:103650000C4DA84206D0446082614A6882630362CE
:1036600030BC704723F08003CD6843EA051323F094
:10367000400324F440644D6944EA85048D6944EABA
:103680008504E8E7002C014038B590F83C30012B68
:1036900066D004460D46012380F83C300C2A5AD8E7
:1036A000DFE802F0075959591B59595930595959EE
:1036B00044000068FFF78EFD2268936943F0080319
:1036C00093612268936923F00403936122689369EC
:1036D00029690B43936100203EE00068FFF7A6FFD5
:1036E0002268936943F4006393612268936923F429
:1036F0008063936122689369296943EA0123936196
:10370000002029E00068FFF78FFD2268D36943F0AD
:103710000803D3612268D36923F00403D3612268CC
:10372000D36929690B43D361002015E00068FFF7D6
:10373000A9FD2268D36943F40063D3612268D36989
:1037400023F48063D3612268D369296943EA0123A2
:10375000D361002000E00120002384F83C3038BD14
:103760000220FCE710B4846824F47F4C42EA032270
:103770000A4342EA0C02826010BC704790F83C3069
:10378000012B78D010B50446012380F83C30022389
:1037900080F83D300268936823F47F4323F0770379
:1037A00093600B68602B4CD023D8402B54D011D899
:1037B000202B03D00AD80BB1102B05D11946206855
:1037C000FFF7A9FD002028E0012026E0302BF5D0EE
:1037D000012022E0502B0AD1CA6849680068FFF72F
:1037E00075FD50212068FFF796FD002015E00120AF
:1037F00013E0B3F5805F3AD0B3F5005F14D0702BBF
:1038000037D1CB684A6889680068FFF7ABFF226848
:10381000936843F0770393600020012384F83D30E0
:10382000002384F83C3010BDCB684A688968006882
:10383000FFF798FF2268936843F480439360002069
:10384000EBE7CA6849680068FFF752FD602120680D
:10385000FFF761FD0020E0E7CA6849680068FFF7EC
:1038600035FD40212068FFF756FD0020D5E70020F8
:10387000D3E70120D1E70220704701F01F014FF08C
:10388000010C0CFA01FC036A23EA0C030362036ACD
:103890008A4013430362704710B50446084651BB83
:1038A00094F83E30DBB2013B18BF0123002B5BD103
:1038B000002839D1022384F83E30012201462068D5
:1038C000FFF7DBFF23682A4A93423DD02368284A4A
:1038D00093423ED0B3F1804F3BD0A2F59432934255
:1038E00037D002F58062934233D01A6842F0010269
:1038F0001A60002039E0042908D008290DD094F876
:103900004130DBB2013B18BF0123CFE794F83F30D1
:10391000DBB2013B18BF0123C8E794F84030DBB2AB
:10392000013B18BF0123C1E7042805D0082807D0B0
:10393000022384F84130C0E7022384F83F30BCE71B
:10394000022384F84030B8E75A6C42F400425A64CB
:10395000BCE79A6802F00702062A07D01A6842F00C
:1039600001021A60002000E0012010BD0020FCE7E9
:10397000002C014090F83C20012A2CD010B40346C2
:10398000012280F83C20022280F83D200268506825
:10399000946820F0700C086840EA0C0050601A68C7
:1039A0000E4882420AD0B2F1804F07D0A0F5943081
:1039B000824203D000F58060824204D124F080046A
:1039C000496821439160012283F83D20002083F85B
:1039D0003C0010BC70470220704700BF002C014023
:1039E000024690F83C30012B21D0012380F83C3076
:1039F000CB6823F440738868034323F480634868EA
:103A0000034323F400630868034323F480530869E5
:103A1000034323F400534869034323F48043C969F3
:103A20000B4311684B64002082F83C007047022071
:103A30007047704770470000024A0349034800F08E
:103A4000C9B800BF0C0000207562000820000020EB
:103A50000C4B416810B59942044601D002F00AFCB3
:103A6000A168094B994202D0204602F003FCE168AC
:103A7000064B994204D02046BDE8104002F0FABB44
:103A800010BD00BF780C0020E00C0020480D002085
:103A90002DE9F84300250423304C314A3149DFF841
:103AA000C890DFF8C880324F324E116004F15C00DC
:103AB00029460822C4E90335C4E90055C4E905557F
:103AC000A560656600F012F904F15800C4E90749E1
:103AD000C4E90987E66200F0DBF9274B2946082292
:103AE00004F1C4006367C4E91A55C4E91E5525678B
:103AF000C4F8CC50C4F8805000F0F8F804F1680322
:103B000004F1C000C4F88430C4E92298C4E92476E2
:103B100000F0BEF9194B294604F596700822C4F846
:103B2000DC30C4E93455C4E93855C4F8D850C4F879
:103B30003451C4F8E85000F0D9F804F1D003C4E9D6
:103B40003D87C4F8F09004F59470C4F8FC60C4F8A4
:103B5000EC30BDE8F84300F09BB900BF780C0020C2
:103B6000B00D0020393A00085D3C0008813C000897
:103B7000C13C0008E53C00080900010012000200F9
:103B800010B504460A4800F087F9636B23B9094B66
:103B9000094A1B68626323B1BDE81040044800F085
:103BA0007DB9FFF775FFBDE81040014800F076B918
:103BB000C00D0020B00D0020513A0008014800F06F
:103BC0006BB900BFC00D0020014800F067B900BF0D
:103BD000C00D00202DE9F8434FF0000980460F4644
:103BE0001646D6E90154013D10D4A389012B08D90A
:103BF000B4F90E30013304D021464046B84749EAB3
:103C00000009013D6B1C04F16804EED13668002EFA
:103C1000E7D14846BDE8F8830EB470B504466FF0AE
:103C2000004600259DB00B4A21AB0B49106853F8A4
:103C3000042B059102A9CDE90134049607961B9542
:103C4000069400F055FD029B1D701DB0BDE870404C
:103C500003B07047180000200802FFFF10B50C46A3
:103C6000B1F90E1000F0BAF8002803DB236D03440D
:103C7000236510BDA38923F48053A38110BD00BF29
:103C80002DE9F0410C46B1F90C101F46CB05054655
:103C900016460BD421F48051A1813B46324628467A
:103CA000B4F90E10BDE8F04100F0AEB8B4F90E1052
:103CB0000223002200F07CF8B4F90C10EAE700BF00
:103CC00010B50C46B1F90E1000F072F8B4F90C30D2
:103CD000421C0EBF23F4805343F480532065A3811C
:103CE00010BD00BFB1F90E1000F050B870B58607D6
:103CF00047D0541E002A3ED00346CAB201E0013C20
:103D000039D303F8012B9D07F9D1032C2CD9CDB25F
:103D100005EB05250F2C1A4605EB054534D9A4F112
:103D2000100C2CF00F0603F1100EB6444FEA1C1CC9
:103D3000C2E90055C2E9025510327245F8D10CF1C2
:103D4000010214F00C0F03EB021204F00F0C13D05D
:103D5000ACF1040323F003030433134442F8045B7F
:103D60009342FBD10CF003042CB1C9B21C4403F8FC
:103D7000011BA342FBD170BD64461346002CF4D155
:103D8000F9E703461446C0E7A446E1E7002238B548
:103D9000064D044608462A60FEF702F8431C00D090
:103DA00038BD2B68002BFBD0236038BDB40D00203C
:103DB00038B50C46114600228446074D20462A603D
:103DC0001A466446FDF7F6FF431C00D038BD2B6849
:103DD000002BFBD0236038BDB40D002038B50C4655
:103DE000114600228446074D20462A601A46644642
:103DF000FDF7B8FF431C00D038BD2B68002BFBD06B
:103E0000236038BDB40D002038B50C4611460022A1
:103E10008446074D20462A601A466446FDF7B2FFE5
:103E2000431C00D038BD2B68002BFBD0236038BD6D
:103E3000B40D0020014B1868704700BF1800002027
:103E400070B50F4B0F4DAB42A3EB050607D0002416
:103E5000B61055F8043B01349847A642F9D805F04E
:103E60005FFE094D094B5E1BAB424FEAA60606D02A
:103E7000002455F8043B01349847A642F9D870BD98
:103E8000E4A70008E4A70008E4A70008ECA70008DE
:103E9000704700BF704700BF704700BF704700BF4A
:103EA000024B13B1024800F005B870470000000053
:103EB00055650008002301461A46184602F01CBC4E
:103EC0002DE9F84306460820894602F057FB0546CF
:103ED000DFF89880304600F0FFFBD8F808305F68C4
:103EE00027F00307A7F11104A4EB09042C44B4FB49
:103EF000F5F4013C05FB04F4A54208DC0021304642
:103F000002F016FBD8F808303B44984205D0304602
:103F100000F0E8FB0020BDE8F8833046614202F083
:103F200007FB01300FD0124AD8F808303F1B47F08A
:103F300001075F60136830461B1B136000F0D2FB63
:103F40000120BDE8F8830021304602F0F1FAD8F8EC
:103F50000820831A0F2BDADD43F001035360054B71
:103F600003491B68C01A0860D1E700BF7001002038
:103F7000C80D00206401002000297CD0F8B50C4653
:103F8000064600F0A9FB54F8043C764FA4F108055E
:103F900023F001016818D7F808C04268844522F070
:103FA000030200F08380DB07426000EB020C33D495
:103FB00054F8084CDCF804302D1B2144AC6807F1A0
:103FC000080C644503F0010364D0D5F80CE0C4F894
:103FD0000CE0CEF80840002B00F0818041F0010396
:103FE0006B600160B1F5007F22D20122CB08490944
:103FF0008A40796801330A437A6057F8331007EB37
:10400000C302083AC5E9021247F83350CD60304682
:10401000BDE8F84000F066BBDCF80430DB072BD5C8
:1040200041F00103B1F5007F44F8043C0160DCD3AA
:10403000B1F5206F4FEA512353D28B0903F13900B8
:1040400003F13802C300F818FB580838984203D12E
:1040500061E09B68984204D05A6822F003028A42C9
:10406000F7D8D868C5E9023085603046DD60BDE824
:10407000F84000F037BB7047114407F1080C836823
:1040800063453FD0C268DA60936041F001036B6022
:104090006950A7E7002B5FD10A44D0E90213CB6037
:1040A000996042F001036B60AA50B0E70A44D90757
:1040B00007D454F8083CED1A1A44D5E90213CB6032
:1040C000996042F001036B60274BBD601B6893420F
:1040D0009DD8264B30461968FFF7F2FE97E711444A
:1040E000CDE7142B08D9542B1DD80B0B03F16F000F
:1040F00003F16E02C300A6E703F15C0003F15B026B
:10410000C300A0E741F00103C7E90455C5E902CCAB
:104110006B6069507BE70121921001FA02F2796825
:104120000A437A609EE7B3F5AA7F06D8CB0B03F16A
:10413000780003F17702C30085E740F254529342BE
:1041400006D88B0C03F17D0003F17C02C3007AE7F3
:104150004FF47E737E2276E741F001036B600160CD
:1041600055E700BF7001002068010020F80D002015
:104170002DE9F04F01F10B05162D064683B024D82A
:10418000102900F2AD8000F0A7FA102518234FF097
:10419000020CB84F3B445C68A3F10802944200F063
:1041A0001D8130466368E268A16823F00303CA609A
:1041B000234491605A68083442F001025A6000F0CA
:1041C00091FA204603B0BDE8F08F35F0070500F105
:1041D0008780A94200F2848000F07EFAB5F5FC7F6A
:1041E000C0F06F816B0A7FD0042B00F21E81AB09F7
:1041F00003F1390C03F1380E4FEACC009D4F3844DF
:1042000044680838A04207D10DE0002AE16880F236
:10421000DF80884207D00C46636823F003035A1BF3
:104220000F2AF2DDF446DFF850823C69444500F085
:10423000BC80636823F00309A9EB05030F2B00F38F
:104240004581002BC7E9048880F22F81B9F5007FF2
:10425000D7F804E080F0C98001234FEAD9014FEA82
:104260005919194403FA09F357F831204EEA030E9D
:1042700007EBC103083BA260E360C7F804E047F81E
:104280003140D46001204FEAAC039840704532D8E9
:1042900010EA0E0F07D12CF0030C400010EA0E0FAD
:1042A0000CF1040CF9D007EBCC0AD646E146DEF857
:1042B0000C300BE059681C4621F003014A1B0F2A01
:1042C000DB6800F3BF80002A80F2E2809E45F1D1D6
:1042D00009F1010919F0030F0EF1080EE7D11FE1F2
:1042E0000C23336000246CE74FF400704FF0400C57
:1042F0004FF03F0E82E7BC68636823F00309A945CD
:1043000003D3A9EB05030F2B52DC5C4B08201B6881
:1043100003F1100804EB0903009302F02FF9584A47
:1043200083461368A844013305D008F1FF38804460
:10433000434203EA08084146304602F0F9F8B0F17A
:10434000FF3F82464E4A00F0DC8004EB09038342C3
:1043500000F2D5804B4B0BF1FF3118684044844686
:10436000186040F0FB801AEA010F40F0F780D7F8A0
:1043700008A0C84448F00102CAF804205446424B41
:104380001968814238BF1860404B1968814238BFB4
:10439000186022F00308A845A8EB050301D30F2BF2
:1043A00006DC304600F09EF99CE7D7F804E069E7A8
:1043B000621943F0010345F0010565603046BA60BB
:1043C0000834536000F08EF9204603B0BDE8F08F4A
:1043D000A2683046D16023448A60EBE6DC68A342E1
:1043E0007FF4DFAE0CF1020C1DE7B9F5206F4FEA48
:1043F00059227DD3142A00F2118102F15C03DB0003
:104400005B32F918FB580839994203D1ECE09B68FC
:10441000994204D05A6822F003024A45F7D8D96875
:10442000C4E902318C60DC602CE7142B6CD9542B6E
:1044300000F2FD802B0B03F16F0C03F16E0E4FEABF
:10444000CC00DBE6D4F808C03046661945F001051B
:104450006560CCF80C30C3F808C042F00103C7E92E
:104460000466C6E902887360625000F03BF90834C4
:10447000A7E600BF7001002078010020F80D0020A1
:1044800064010020C80D0020F40D0020F00D002074
:1044900021444A68304642F001024A6054F8082F2D
:1044A000D3609A6000F01EF98BE6A144D9F804307D
:1044B000304643F00103C9F8043000F013F9083422
:1044C0007FE64FEAD50C05F1080362E6621943F076
:1044D000010145F0010565603046C7E90422C2E9E3
:1044E0000288516044F8093000F0FCF8083468E6AE
:1044F0004FEA991202F13903DB00383281E7BC42FE
:1045000024D0BC68626844E703F15C0C03F15B0EE5
:104510004FEACC0072E65AF80839534540F0D8808B
:104520001CF0030F0CF1FF3CF5D17B6823EA00037C
:104530007B60400098423FF6DEAE18B9DBE64000F3
:1045400009F104091842FAD0CC46ACE6614B0BF1F4
:10455000FF31186808EB000CC3F800C01068013088
:1045600070D004EB0902AAEB020262441A601AF04E
:104570000702CDE9002340D0C2F108029244D044A2
:1045800008EA01005A44121A02EA010B5946304661
:1045900001F0CEFF421C019B71D0A0EB0A0000EBA2
:1045A0000B08186848F001025844BC42C7F808A03C
:1045B0001860CAF804203FF4E1AEB9F10F0F44D9F6
:1045C0004FF0050C6168A9F10C0222F0070201F01E
:1045D0000101114361600F2A04EB0201C1E901CC22
:1045E00055D8DAF80420C9E60120921000FA02F248
:1045F0004EEA020EC7F804E012E70AEB08020A408E
:10460000ABEB020202EA010B5946304601F090FF83
:10461000431C019BC1D1DDF800B0C2E7542A18D871
:104620004FEA193202F16F03DB006E32E9E6B3F5AF
:10463000AA7F18D8EB0B03F1780C03F1770E4FEA41
:10464000CC00DBE5C2F800A091E70123CAF80430F2
:10465000A7E6B2F5AA7F25D84FEAD93202F178034E
:10466000DB007732CDE640F25452934225D8AB0CB2
:1046700003F17D0C03F17C0E4FEACC00BEE5009AFD
:104680004FF0000B083A9044A8EB0A0889E730463F
:1046900004F108010093FFF76FFC009BD7F808A016
:1046A00018689EE740F254539A420DD84FEA994257
:1046B00002F17D03DB007C32A3E64FF47E704FF005
:1046C0007F0C4FF07E0E99E54FF47E737E2298E6C4
:1046D0007B682EE7C80D00200148FFF7DDBB00BF57
:1046E000B80D00200148FFF7D9BB00BFB80D00206E
:1046F0002DE9F04FDDB00C4691460D910F938346A6
:1047000001F012FF036818461A9301F091FF082286
:10471000189000212CA8FFF7E9FAA389180603D501
:104720002369002B00F01587002300249E46CDE965
:104730003133002333AACDE91634DA4614464D4608
:10474000CDE91BEE3092CDF864E0CDF880E0CDF8F5
:1047500074E0CDF828E0CDF848E02F466E4BD3F852
:10476000E46001F0DBFE0DF1B00C03463A46504622
:1047700028A9CDF800C0B047002800F09F80C0F203
:104780009580289B252B01D00744E7E7B7EB050868
:10479000064640F0978000224FF0FF33934609937E
:1047A0007B787E1C8DF897200B9299460136A9F1F3
:1047B00020035A2B00F2B280DFE813F0F302B000BE
:1047C000B000EF02B000B000B000FD02B000B000D9
:1047D0006A003502B0002702D202B000CE025B00B0
:1047E0005B005B005B005B005B005B005B005B00F1
:1047F000B000B000B000B000B000B000B0002801C0
:10480000B000AA013E02280128012801B000B00032
:10481000B000B0003A02B000B000A802B000B00092
:10482000B000D001B000BC02B000B0008A06B000F9
:10483000B000B000B000B000B000B000B00028017F
:10484000B000AA0101022801280128012B0201025F
:104850007400B0006402B0005502AF066E0274002E
:10486000B000D0017200AC06B000B000B206B000DB
:1048700072000022A9F1300316F8019B02EB8202BC
:1048800003EB4202A9F13003092BF5D90B928EE715
:104890000F9B53F8042B002A0B920F93C0F2B281A6
:1048A000337882E733784BF0200B7EE70822002133
:1048B0002CA8FFF71BFA012007444FE7B7EB0508C8
:1048C000064610D0329BC4E9005843443293319BD2
:1048D0000133072B319315DC08340A9B43440A93B8
:1048E000002E7FF458AF329B002B41F05E810D9B70
:1048F0009B8903F04003002B41F080830A985DB050
:10490000BDE8F08F50460D9930AA01F087FC0028D1
:10491000EDD133ACE1E700BF780500201096B9F186
:10492000000FE0D0012300228DF80C91069343ADD7
:104930008DF897200C93CDE913220E9209921192D3
:104940001BF0020302D00699023106911BF0840885
:10495000329E05D10B9906980F1A002F00F39B8009
:104960006AB101226260319A013601320DF197017C
:10497000072A32963192216000F3D883083463B15C
:1049800002236360319B0236013326AA072B32963D
:104990003193226000F3BF830834B8F1800F00F038
:1049A000BF82099B0C9A9F1A002F00F3F9821BF417
:1049B000807F40F01E820C9B25601E446360319B0B
:1049C00032960133072B319300F33F8308341BF0F9
:1049D000040F05D00B9B069A9D1A002D00F3B3839C
:1049E000DDE90A3206998A42ACBF9B185B180A932C
:1049F000002E40F00883002331930E9B1BB15046DC
:104A00000E99FFF7B9FA33AC109DA6E60F9B1096EE
:104A1000073323F00703F3E802670F9327F00043FF
:104A20001F931E964FF0FF32DDE91E01B24BCDE918
:104A30001667FCF7A5FB002840F0F484DDE91E01B1
:104A40004FF0FF32AC4BFBF79BFF002840F0EA84AD
:104A50000022002330463946FBF788FF002840F04B
:104A6000B2879DF8972000210320A44DA44B2BF082
:104A7000800B0E910690B9F1470FD8BF1D46CDE9C6
:104A8000131109910C901191002A3FF459AF069B24
:104A90000133069354E7102F319A41F30D82DFF86A
:104AA00064C2214630460D9C2E46CDF854C0654662
:104AB000219304E0103F102F01F1080116DD1023AF
:104AC00001321030072ACDE931200D604B60F1DD55
:104AD0002146504630AA01F0A1FB002840F09B82FD
:104AE000DDE93120103F102F33A9E8DC35460C46B4
:104AF0000646219B013215993E44072ACDE931260D
:104B00002160676000F381869DF89720083427E7CD
:104B10000F9BB9F1430F109603F1040603D01BF06D
:104B2000100F00F00185082200212EA8FFF7DEF803
:104B30000F9A43AD2EAB29465046126803F0E6F9B2
:104B4000034601330C9001F054820C9B23EAE3737B
:104B5000069300220F968DF89720ECE600230F9F16
:104B6000109657F8045B8DF89730002D00F0008503
:104B7000B9F1530F00F094861BF01003119340F02D
:104B80008F86099B002BC1F21B801A46284611997B
:104B900001F002FD0E90002801F081820E9B119918
:104BA0005B1B0C9323EAE3734FF07309CDE91311F8
:104BB0009DF897200F97099106930E9164E71BF0DB
:104BC000200F10963ED00F9B073323F007031846A3
:104BD000596850F8083B0A460F900029C0F2CA8372
:104BE00009990029C0F2888253EA02012BF080075C
:104BF00040F08382099A002A40F08482BB460C92DE
:104C00005CAD64E10B9B5B420B9333784BF0040B80
:104C1000CBE53378682B03BF73784BF4007B013608
:104C20004BF0400BC1E52B238DF897303378BCE572
:104C300033784BF0080BB8E54BF0100B1BF0200F4E
:104C40001096C0D10F9A1BF0100F52F8043B0F9230
:104C500040F0C2831BF0400F00F0BA8343F3C03230
:104C600011461BB2B9E71BF0200F109600F0C58368
:104C70000F9B0A9A1B681A60D2175A600F9B043365
:104C80000F93C1E633786C2B03BF73784BF0200B86
:104C900001364BF0100B88E547F630030F9AADF85C
:104CA000983052F8043B02210F924FF0780900220D
:104CB000154810964BF0020719900020099D8DF8B9
:104CC0009700002DC0F2EC8053EA020027F0800B21
:104CD00040F0E580002D40F0D285002940F053835C
:104CE00017F001030C9300F0718330230DF26F1560
:104CF0008DF86F31EBE000BFFFFFEF7FB4A300083A
:104D0000B0A30008A8A50008C0A3000810964BF0A7
:104D1000100B1BF0200200F012830F9B073323F0CF
:104D2000070319465A6851F8083B0F9100212BF4EC
:104D30008067C2E710964BF0100717F0200200F0D2
:104D40000B830F9B0121073323F0070318465A6892
:104D500050F8083B0F90B0E733784BF0800B24E518
:104D6000314611F8019BB9F12A0F01F02882A9F10F
:104D70003003092B98BF002201F2A28011F8019B99
:104D800002EB820203EB4202A9F13003092BF5D9B1
:104D900042EAE2730E46099309E533784BF0010BC2
:104DA00003E59DF897203378002A7FF4FEAC20229B
:104DB0008DF89720F9E4504601F0B6FB4368184699
:104DC0001D9301F035FC20900746504601F0ACFBE6
:104DD00083681B93002F3FF463AD1B9A3378002A3E
:104DE0003FF4E3AC1278002A3FF4DFAC4BF4806B65
:104DF000DBE4B9F1650F40F33781DDE916010022EC
:104E00000023FBF7A9FD002800F0D881012363608F
:104E1000319B934A01330136072B3296319322603E
:104E200000F332850834279B129A934280F2C9829C
:104E3000189B1A9A1E44C4E90023319B3296013311
:104E4000072B319300F37A830834129B5D1E002DEB
:104E50007FF7BDAD102D319B40F3EB80DFF804925E
:104E60001027DDF83480CDF8549004E00834103D6C
:104E7000102D40F3E08001331036072BC4E9009772
:104E8000CDE93136F2DD4146504630AA01F0C6F98F
:104E9000002840F0C080DDE9313633ACE7E75F46FB
:104EA000012900F02A8102295CAD1ED1199803F076
:104EB0000F01415C1B0943EA0273120905F8011D49
:104EC00053EA0201F3D1BB465CAB5B1B0C93099A1E
:104ED0000C9900238A42B8BF0A46CDE913330692E3
:104EE0000E939DF897201193CEE503F00701DB08A0
:104EF00043EA4273D208303153EA0206284605F8E5
:104F0000011DF2D1FB07DED53029DCD03023023879
:104F100005F8013C5CAB1B1ABB4605460C93D6E773
:104F20000B9B069A9F1A002F7FF73BAD102F319BEA
:104F300041F35B804B48224631464FF0100806464D
:104F40000D9C159004E0103F102F02F1080214DDB3
:104F500001331031072BC2E90068CDE93131F2DDB0
:104F60002146504630AA01F059F9002853D1DDE915
:104F70003131103F102F33AAEADC14460E460133BC
:104F8000159A3E44072BCDE931362260676000F365
:104F9000C084099B0C9A08349F1A002F7FF707AD35
:104FA000304A102F319B159221DD32464FF0100808
:104FB0002E460D9D04E0103F102F04F1080414DD6F
:104FC000013328491032072BC4E90018CDE93132EA
:104FD000F1DD2946504630AA01F020F9D8B9DDE9C3
:104FE0003132103F102F33ACEADC35461646013320
:104FF000159A3E44072BCDE931362260676000F3F5
:1050000092810834D3E450460D9930AA01F006F994
:1050100000283FF4F0ACD3460E9B002B3FF467AC66
:1050200058460E99FEF7A8FF0D9B9B8903F040039D
:1050300061E40C4A1592159A01332E44072B226025
:105040006560CDE931367FF7C1AC50460D9930AA85
:1050500001F0E4F80028DED1329E33ACB7E400BFA3
:10506000F0A3000898A50008129B319F012B06F1C0
:10507000010607F1010704F1080940F3108101233B
:10508000072FCDE931762560636000F38081189B9E
:1050900001371A9A1E44072FC9E90023CDE931765A
:1050A00000F3828109F10809129B0022DDE9160153
:1050B0005C1E0023FBF750FC002840F009810137FB
:1050C00001352644072FCDE93176C9F80050C9F8DB
:1050D000044000F3F08009F108091C9B01371E44CD
:1050E000C9F80430072F2AABCDE93176C9F8003072
:1050F000ABDC09F108046AE45F460A2B72F1000197
:1051000080F0258330338DF86F310123BB460C933B
:105110000DF26F15DBE650460D9930AA01F07EF8CE
:1051200000287FF478AF329E33AC36E450460D99B8
:1051300030AA159301F072F800287FF46CAF329E0C
:10514000159B33AC1BE4102D319B40F33187DFF806
:10515000CC821027DDF83490CDF8548004E0103D67
:10516000102D04F1080415DD01331036072BC4E9B6
:105170000087CDE93136F2DD4946504630AA01F0CC
:105180004DF800287FF447AFDDE93136103D102D92
:1051900033ACE9DC0133159A2E44072BC4E9002512
:1051A000CDE931367FF71CAC50460D9930AA01F09D
:1051B00035F800287FF42FAF329E11E4279900299B
:1051C00040F33383DDE911839845A8BF9846B8F1D1
:1051D000000F0ADD319B46440133072BC4E9005818
:1051E0003296319300F33E860834119FB8F1000FD8
:1051F000A8BFA7EB0807002F00F3CB81DDF8449090
:105200001BF4806FA94440F0EA81279B129A9342D5
:10521000C0F271821BF0010F40F06D82129AAF183C
:10522000A7EB0907D51AAF42A8BF2F46002F0BDD09
:10523000319B3E440133072BC4F8009067603296DF
:10524000319300F385860834002FA8BFED1B002D95
:105250007FF7BDAB102D319B7FF7EBAEDFF8C09130
:105260001027DDF83480CDF8549004E00834103D68
:10527000102D7FF7E0AE01331036072BC4E90097FD
:10528000CDE93136F2DD4146504630AA00F0C6FF86
:1052900000287FF4C0AEDDE9313633ACE7E71BF020
:1052A000010F7FF4ECAE0123072FCDE931762560A5
:1052B00063607FF712AF50460D9930AA00F0AEFF41
:1052C00000287FF4A8AEDDE931760DF1CC0904E7C2
:1052D000129B012B7FF701AF112B40F37F87504BBF
:1052E000CDF824B010259B46DDF83480159305E0F9
:1052F00009F10809103C102C40F33C8301371036AB
:10530000072FC9E900B5CDE93176F1DD41465046B8
:1053100030AA00F083FF00287FF47DAEDDE931760E
:105320000DF1CC09E6E750460D9930AA00F076FF62
:1053300000287FF470AE329E33ACFFF738BB0F9974
:105340001BF0100051F8043B55D11BF040054ED026
:1053500002460F919BB2E9E40F9917F0100051F843
:10536000043B41D117F040053AD00F91024601218C
:105370009BB2A2E45B425F464FF02D004FF001016B
:1053800062EB42029AE4099B5CAD0C939FE55046A8
:105390000D9930AA00F042FF00287FF43CAEDDE911
:1053A00031760DF1CC0972E650460D9930AA00F025
:1053B00035FF00287FF42FAEDDE931760DF1CC0901
:1053C00072E61BF0010F3FF402AB31E55CAD7EE508
:1053D0001BF4007F40F04F83DA171146FFF7FDBB47
:1053E00017F4007240F052830F91012165E41BF421
:1053F000007240F046830F9198E41BF0100F40F0CC
:1054000094821BF0400F40F0CA831BF4007F00F031
:105410008C820F9B0A9A1B681A702FE4A8A50008BB
:1054200098A50008DDE9160102460B46FBF7A8FE29
:10543000002840F01C86B9F1610F00F01F85B9F11A
:10544000410F00F04A85099B013300F0EF8329F0FA
:105450002003472B00F0E1850E90DDE91612002AAB
:1054600013464BF48078C0F2E68400231593DDE9FF
:105470001623CDE92223A9F14103252B00F20E8347
:10548000DFE813F018040C030C030C03D803A50485
:105490000C030C030C030C030C030C030C030C0394
:1054A0000C030C030C030C030C030C030C030C0384
:1054B0000C030C030C030C030C030C030C030C0374
:1054C0000C030C0318040C030C030C03D803A504F1
:1054D000A64B109619931BF0200200F01A810F9B27
:1054E000073323F0070319465A6851F8083B0F9118
:1054F0001BF0010F09D053EA020106D030218DF8CC
:1055000099904BF0020B8DF8981002212BF48067D4
:10551000FFF7D3BB5F4610960FE41096FFF7F9BB79
:10552000934B10961993D6E70F9B43AD1B688DF8EC
:105530000C31012306930C93FFF70BBB50460D99DA
:1055400030AA00F06BFE00287FF465AD329E33ACCC
:105550007BE440215846FEF70BFE0D9B1860186156
:10556000002800F03F8640230D9A5361FFF7DCB816
:10557000099B2946062B28BF06232A4609950E9526
:10558000CDE913117B4D06930F970C931191FFF703
:105590007BBA102F319B40F31D86774932464FF07E
:1055A00010090E46DDF83480159104E00834103FF0
:1055B000102F40F3EE8101331032072BC4E900694C
:1055C000CDE93132F2DD4146504630AA00F026FEE8
:1055D00000287FF420ADDDE9313233ACE7E7129BE0
:1055E0002246EB180993139B4C46002B3146DDF8FD
:1055F0005080CDF844B0DDF86C90209EDDF834B0DA
:10560000149531DDB8F1000F40F3338108F1FF3814
:1056100031981D9B013031440728C2E90036329190
:10562000319000F389800832099B99F800001F1B14
:105630008742A8BF0746002F0CDD3198394401305E
:105640000728C2E900473291319000F3558199F85B
:1056500000000832002FB4BF0546C51B002D14DC26
:105660000444139B002BCDDCB8F1000FCEDCCDF849
:105670006C90A146149D129B1446EB1899450E465A
:1056800028BF9946DDF844B0BFE5102D31983A4B5C
:1056900023DD0C9410272C461D4604E0103C102CF2
:1056A00002F1080216DD0130334B10310728C2E940
:1056B0000037CDE93101F1DD5946504630AA00F0FE
:1056C000ADFD00287FF4A7ACDDE93101103C102CC2
:1056D00033AAE8DC2B4625460C9C013029440728D8
:1056E000CDE931011360556000F3AD8399F80000F6
:1056F00008320444B5E7189A1A991644C4E900120E
:10570000319A32960132072A319200F3C883083465
:1057100084E50F991BF0100051F8043B0AD11BF0EF
:10572000400503D002460F919BB2E1E61BF40072E4
:1057300040F09D810F91DBE65946504630AA00F0BB
:105740006DFD00287FF467AC329933AA6CE707F44B
:1057500080610C970E944FF0000E0F46DFF81CB0DE
:105760001B9C0DF5B87CCDF8189010E0D4A3000870
:10577000C0A30008E8A3000898A50008CDCCCCCCB5
:105780000A2B72F1000237D343463246AC469918D1
:1057900041F10001ABFB010626F0030000EB96008F
:1057A0004FF0CC36091A581A06FB00F662F10009D0
:1057B000A0FB0B800BFB09660644052008F00109DD
:1057C000A9FB000940184FEA5808303048EAC6786B
:1057D0000EF1010E0CF1FF350CF8010C7608002FCC
:1057E000CED021788E45CBD1BEF1FF0FC8D00A2B89
:1057F00072F1000280F0DA801B94DDF818900C9FA3
:105800000E9CCDF848E0FFF75EBB50460D9930AADC
:10581000159300F003FD00287FF4FDAB9DF8972061
:10582000329E159B33ACFFF79BB801236360319B1D
:10583000994A01330136072B32963193226000F3E7
:10584000FE800834002976D1129A0BF0010313432D
:105850003FF4BDA8189B1A9A1E44C4E90023319B4B
:1058600032960133072B319300F3D38104F1080200
:1058700072E0139B09F1FF39013B1393C8E601293C
:105880005F467FF410AB3DE450460D9930AA00F01E
:10589000C5FC00287FF4BFAB329E33ACFFF7C3BA20
:1058A0000DF1B8080822002140462995FEF71EFA9E
:1058B000099B002BC0F28C8000260697CDF8309013
:1058C000374699460FE04346504643A902F01EFB77
:1058D000421C06F10406384400F0BD83484506DC4E
:1058E00000F0FE830746299B9A59002AEBD1DDF888
:1058F00030900C97069F79E05946504630AA00F048
:105900008DFC00287FF487AB99F80000329933AA08
:10591000A0E650460D9930AA00F080FC00287FF4E4
:105920007AAB329E33ACFFF73CB80F9B0A9A1B68E8
:105930001A60FFF7A3B9189B1A9A1E44C4E9002302
:10594000319B32960133072B319300F3628104F1CE
:1059500008020029C0F20B83129901330E44072B71
:10596000CDE93136156051603FF76FAB02F10804A5
:10597000FFF72DB8DDF824B00137159B2644072F1B
:10598000CDE93176C9F80030C9F804407FF7A3AB00
:1059900091E416460133159A3E44072BCDE9313682
:1059A0002260676000F32981083427E4209B1D9959
:1059B000ED1A1A46284600F07BFD637803B10134E6
:1059C0004FF0000EE0E62D228DF89720FFF74BB840
:1059D000002350461946CDF8008029AA02F0BCFAEF
:1059E000034601330C9000F0368329950C9B002B65
:1059F00031D0632B00F3F780002343AD0E930822D0
:105A000000214046FEF772F90C9E29463346504667
:105A1000CDF8008029AA02F09FFA864240F0F28376
:105A200000230C9ACDE9133322EAE271AB549DF8BE
:105A300097200F97069109931193FFF725B85046C9
:105A40000D9930AA00F0EAFB00287FF4E4AA279918
:105A5000329E33ACF6E60C9B9DF89720CDE91333CC
:105A60000F970693099311930E93FFF70DB82A46EB
:105A70000F91DBB23CE543F3C01211465BB2FFF776
:105A8000ACB82A460F91DBB2FFF750B90F912A4606
:105A90000121DBB2FFF711B9F0A30008099B5046C2
:105AA0000193022300932EAB049329AB039327ABFE
:105AB0000293DDE9222300F0FFFE1BF0010F0546F3
:105AC00040F007822E9B1B1A1293279B1193119B68
:105AD000D91C03DB099A9A4280F28E81119BA9F1AD
